:020000040800F2
:10000000F8060020890100086F120008CF100008D0
:100010006D120008F302000823140008000000001D
:10002000000000000000000000000000BD130008F8
:10003000F50200080000000071120008BF1300085C
:10004000A3010008A3010008A3010008A301000800
:10005000A3010008A3010008A3010008A3010008F0
:10006000A3010008A3010008A3010008A3010008E0
:10007000A3010008A3010008A3010008A3010008D0
:10008000A3010008A3010008A3010008A3010008C0
:10009000A3010008A3010008A3010008A3010008B0
:1000A000A3010008A3010008A3010008A3010008A0
:1000B000A3010008A3010008A3010008A301000890
:1000C000A3010008A3010008A3010008A301000880
:1000D000A3010008A3010008A3010008A301000870
:1000E000A3010008A3010008A301000800F002F822
:1000F00000F03AF80AA090E8000C82448344AAF188
:100100000107DA4501D100F02FF8AFF2090EBAE885
:100110000F0013F0010F18BFFB1A43F0010318473B
:10012000C81C0000E81C0000103A24BF78C878C141
:10013000FAD8520724BF30C830C144BF04680C60ED
:10014000704700000023002400250026103A28BF35
:1001500078C1FBD8520728BF30C148BF0B60704739
:100160001FB51FBD10B510BD00F08AF81146FFF78E
:10017000F7FF01F093FB00F0A8F803B4FFF7F2FFDC
:1001800003BC00F0AFF80000094880470948004769
:10019000FEE7FEE7FEE7FEE7FEE7FEE7FEE7FEE737
:1001A000FEE7FEE704480549054A064B7047000094
:1001B00021140008ED000008F8000020F8060020D7
:1001C000F8020020F802002010B5203AC0F00B80A1
:1001D000B1E81850203AA0E81850B1E81850A0E84B
:1001E0001850BFF4F5AF5FEA027C24BFB1E81850A5
:1001F000A0E8185044BF18C918C0BDE810405FEA15
:10020000827C24BF51F8043B40F8043B08BF704790
:10021000D20728BF31F8023B48BF11F8012B28BF95
:1002200020F8023B48BF00F8012B70474FF0000256
:1002300000B5134694469646203922BFA0E80C50DC
:10024000A0E80C50B1F12001BFF4F7AF090728BFB7
:10025000A0E80C5048BF0CC05DF804EB890028BF33
:1002600040F8042B08BF704748BF20F8022B11F05C
:10027000804F18BF00F8012B7047704770477047D8
:10028000754600F02BF8AE4605006946534620F04F
:100290000700854618B020B5FFF784FFBDE8204071
:1002A0004FF000064FF000074FF000084FF0000B32
:1002B00021F00701AC46ACE8C009ACE8C009ACE8E5
:1002C000C009ACE8C0098D46704710B50446AFF3CD
:1002D00000802046BDE81040FFF74FBF0048704740
:1002E0009800002001491820ABBEFEE7260002005E
:1002F0007047FEE7704772B6FEE7000070B504462F
:1003000000F00CF90546601C02D004480078044453
:1003100000F004F9401BA042FAD370BD0400002095
:100320002DE9F84FDFF8B8910024A9F1040B23461A
:100330000F2709F1040AABF1040EC9E00125A5401D
:100340002A40AA427DD1674ED1F804C0ACEB060822
:10035000B44532D014DCBCF1030F3AD009DCBCF157
:10036000000F2AD0BCF1010F1CD0BCF1020F31D11B
:100370001DE0BCF1110F17D0BCF1120F2AD119E00A
:10038000B8F5881F19D006DCB8F5803F15D0B8F550
:10039000801F1FD111E0B8F5001F0ED0B8F5041F63
:1003A00018D10AE0CB6815E0CB681B1D12E0CB68C2
:1003B00008330FE0CB680C330CE08B682BB1012BBA
:1003C0004FF0080303D0456104E0042302E0056117
:1003D00000E00023FF2A01D8064601E000F10406F0
:1003E0004FEA840501D9A5F12005D6F8008007FA67
:1003F00005FC28EA0C0803FA05F548EA0508C6F8E2
:1004000000804D68ED0062D5374DAE6946F00106BB
:10041000AE61AD6924F0030605F001050095334D8A
:1004200006EB050CDCF80850A607360F07FA06F8AD
:1004300025EA0805DFF8B880404503D14FF00008F1
:1004400017E044E0DFF8AC80404502D14FF00108EE
:100450000FE0DFF8A480404502D14FF0020808E029
:10046000DFF89880404502D14FF0030801E04FF0DB
:10047000040808FA06F848EA0508CCF808804D6830
:10048000D9F80060ED024D4601D5164300E09643D1
:100490002E604D68DAF80060AD02554601D516436E
:1004A00000E096432E604D68DBF80060AD035D46CA
:1004B00001D5164300E096432E604D68DEF80060DB
:1004C000ED03754601D5164300E096432E60641C8B
:1004D0000D682A46E5407FF431AFBDE8F88F000093
:1004E000080401400000111000100240000001400B
:1004F00000080140000C01400010014000140140C0
:10050000C26821EA02030A4043EA024101617047DE
:100510000AB1016170470904FBE7000001488068E7
:1005200070470000040000200248816802781144EE
:100530008160704704000020074810B5016841F051
:1005400010010160032000F067F80F2000F006F8AA
:1005500000F024F8002010BD0020024070B50D4DC1
:1005600004464FF47A712878B1FBF0F00A49096823
:10057000B1FBF0F000F097FD48B9102C07D2002233
:100580002146501E00F028F800206C6070BD01204C
:1005900070BD000004000020100000200C4808B5C9
:1005A000816941F001018161816901F001010091DE
:1005B000C16941F08051C161C06900F08050009074
:1005C0000448416821F0E06141F00071416008BDDC
:1005D0000010024000000140F0B40E4B1B680C46B6
:1005E000C3F30223C3F10705042D00D90425191D07
:1005F000072901D2002300E0DB1E012606FA05F1DF
:10060000491E214099409E40761E16403143F0BC61
:1006100000F008BF0CED00E0064900F00702086892
:100620004FF6FF03184040EA0220034A10430860D7
:10063000704700000CED00E00000FA052DE9F047DE
:100640000F46050061D0434E306800F00700B84205
:1006500009D2306820F0070038433060306800F07D
:100660000700B84251D128683B4C810712D540079A
:1006700003D5606840F4E06060602878000703D527
:10068000606840F4605060606068A96820F0F00025
:10069000084360602878C00728D06868012810D017
:1006A0002168022810D0890700292EDA616821F01C
:1006B000030101436160FFF731FF804641F2883951
:1006C0000DE021688903EFE78901EDE7FFF726FFD9
:1006D000A0EB0801494502D90320BDE8F087606816
:1006E000696800F00C00B0EB810FEFD1306800F0CA
:1006F0000700B8420BD9306820F00700384330605B
:10070000306800F00700B84201D00120E5E7287802
:10071000400705D56068E96820F4E0600843606040
:100720002878000706D56068296920F4605040EAFF
:10073000C100606000F018F86168084AC1F3031155
:10074000515CC8400649086006480068FFF706FF8C
:100750000020C2E70020024000100240821D000875
:1007600010000020080000200E4A51680E4801F0D9
:100770000C03042B11D0082B0FD10C48C1F3834379
:10078000C903C05C0AD55168084AC1F34041921EB2
:10079000515C054A5043B0FBF1F0704704494843AF
:1007A000704700000010024000127A00721D00081D
:1007B00000093D002DE9F84F040070D02078C04DAD
:1007C000C00749D06868C0F38100012807D0686875
:1007D000C0F38100022809D16868C00306D52868E3
:1007E000800339D560680028E7D035E06068B0F54F
:1007F000803F0BD010B1B0F5A02F11D0286820F4A5
:1008000080302860286820F4802002E0286840F4C6
:1008100080302860606890B1FFF780FE06460AE0ED
:10082000286840F480202860F0E700BFFFF776FEDC
:10083000801B642873D828688003F7D50CE0FFF785
:100840006DFE064605E000BFFFF768FE801B6428CA
:10085000F0D828688003F7D420789A4E80074FF0AC
:1008600001094FF0000839D5686810F00C0F07D067
:100870006868C0F38100022809D16868C00306D403
:100880002868800714D52069012808D110E0206964
:10089000B0B1C6F80090FFF741FE074605E00AE157
:1008A000FFF73CFEC01B0228C4D828688007F7D594
:1008B0002868616920F0F80040EAC10028600DE076
:1008C000C6F80080FFF72AFE074604E0FFF726FE81
:1008D000C01B022823D828688007F7D42078000797
:1008E0002CD57948A169D9B1C0F80090FFF716FE60
:1008F000074604E0FFF712FEC01B02280FD8686A03
:100900008007F7D571484FF4FA510068B0FBF1F059
:10091000009000BF0098411E0091FAD20EE080E0E6
:10092000C0F80080FFF7FAFD074604E0FFF7F6FD88
:10093000C01B022875D8686A8007F7D42078400762
:1009400060D5E8690027C00008D4E86940F080500D
:10095000E861E869012700F0805000905C48016878
:10096000C90513D40168834641F480710160FFF723
:10097000D5FD824606E000BFFFF7D0FDA0EB0A00E0
:1009800064284ED8DBF80000C005F5D5E0680128E2
:100990000AD008B1052813D0286A20F00100286287
:1009A000286A20F0040002E0286A40F00100286272
:1009B000E06841F2883B98B1FFF7B0FD82460BE05A
:1009C000286A40F004002862EEE700BFFFF7A6FDAA
:1009D000A0EB0A0159455AD8286A8007F6D50CE0E1
:1009E000FFF79CFD824605E0FFF798FDA0EB0A01AA
:1009F00059454CD8286A8007F6D41FB1E86920F021
:100A00008050E861E06988B36968C1F38101022917
:100A100044D00228C6F8608004D0FFF77FFD04466A
:100A200038E034E0FFF77AFD074604E0FFF776FD93
:100A3000C01B02282BD828688001F7D4206AB0F5A3
:100A4000803F05D16868A16820F4003008436860E1
:100A5000D4E908010843696821F474110843686007
:100A6000C6F86090FFF75AFD044606E025E000BF97
:100A7000FFF754FD001B022809D828688001F7D52C
:100A80001BE000BFFFF74AFD001B022802D903202C
:100A9000BDE8F88F28688001F4D40EE00128F7D073
:100AA0006868226A00F48031914204D1616A00F4DE
:100AB0007010884201D00120EAE70020E8E700003A
:100AC0000010024000004242800442421000002018
:100AD0000070004090F85100704770B5040009D0D4
:100AE000606A002540B125616561A56294F85100F6
:100AF00040B10CE0012070BD6068B0F5827FF4D099
:100B0000E561F2E784F85050204600F03FF80220FB
:100B100084F851002068016821F040010160A0883C
:100B2000218900F4827001F404410843A18901F491
:100B300000610843217C01F002010843217D01F09E
:100B400001010843218B01F400710843217F01F06A
:100B50003801084394F8201001F080010843218DEA
:100B600001F40051084321680860A069042101EAEA
:100B70001040216848602068C16921F40061C161AA
:100B80006565012084F85100002070BD30B585B046
:100B9000002400940194029403940068144988424C
:100BA00023D11448816941F480518161816901F444
:100BB00080510491816941F00401816180690E4D89
:100BC00000F004000490A020009002200190032077
:100BD000039069462846FFF7A3FB4020CDE90004B7
:100BE000694628460294FFF79BFB05B030BD000024
:100BF0000030014000100240000801402DE9F84F8C
:100C0000044690F851001D4616460F46012838D17B
:100C100060684FF00408B0F5827F01D1A06830B35E
:100C2000FFF77CFC8246002F75D0002E73D094F81D
:100C30005000012825D04FF0010984F8509084F825
:100C400051804FF00008C4F85480A763A687E68758
:100C5000C4F83080A4F83480A4F83680C4F840800A
:100C6000C4F84480A068B0F5004F0CD015E084F8BB
:100C70005180009313460A46204600F01CF9BDE857
:100C8000F88F0220FBE72068016821F04001016035
:100C90002068016821F480410160206801684906EC
:100CA00003D4016841F040010160E068C0B134E064
:100CB00020688168C90709D0007BA16B0870A06B10
:100CC000401CA063E08F401EE08709E0FFF726FC90
:100CD000A0EB0A00A84202D3681C01D032E085B321
:100CE000E08F0028E4D11BE020688168C90709D0A3
:100CF000C068A16B0880A06B801CA063E08F401EC1
:100D0000E0870AE0FFF70AFCA0EB0A00A84203D341
:100D1000681C02D016E012E09DB1E08F0028E3D1FC
:100D200052462946204600F0A4FA08B1202060650A
:100D300084F8519084F85080606D00289FD0012085
:100D40009DE7FFE784F8519084F85080032096E7F0
:100D50002DE9F84F984616468A460446FFF7DEFB13
:100D6000814694F8510001281ED1BAF1000F73D0CA
:100D7000002E71D094F85000012815D0012784F876
:100D80005070032084F8510000256565C4F830A038
:100D9000A686E686A563A587E58765642564A068C1
:100DA000B0F5004F03D00CE00220BDE8F88F2068BA
:100DB000016821F0400101602068016841F4804130
:100DC000016020680168490603D4016841F04001D0
:100DD0000160E068B0F5006F606803D048B3012E91
:100DE00027D047E008B1012E1FD1206B2168008871
:100DF000C86006E020688168890709D5216B0988E9
:100E0000C160206B801C2063E08E401EE0860CE0F9
:100E1000FFF784FBA0EB0901414503D3B8F1FF3F85
:100E200003D035E0B8F1000F32D0E08E0028E1D1D8
:100E300023E0206B21680078087306E02068816851
:100E400089070AD5216B09780173206B401C206348
:100E5000E08E401EE0860DE02BE0FFF75FFBA0EB8D
:100E60000901414503D3B8F1FF3F03D010E0B8F1C9
:100E7000000F0DD0E08E0028E0D14A4641462046C2
:100E800000F025FA08B120206065A06830B109E0C3
:100E900084F8517084F85050032086E72068C168B8
:100EA0008068009084F8517004F8505F60680028F2
:100EB000F3D0012079E72DE9FF4F81B01D4693461D
:100EC00004464FF001090E9EFFF728FB074694F8F1
:100ED00051006168012806D0B1F5827F3CD1A1683C
:100EE000C9BB042838D10298002871D0BBF1000F8B
:100EF000FBD0002DF9D094F8500001282CD04FF0F1
:100F0000010A84F850A094F85100042802D005206A
:100F100084F851004FF00008C4F85480C4F838B089
:100F2000E587A58702992163E586A586C4F84080F8
:100F3000C4F8448020680168490603D4016841F080
:100F400040010160E068B0F5006F606808D0F0B360
:100F5000012D49D081E0FFE7022005B0BDE8F08F08
:100F600008B1012D39D1206B21680088C860206B41
:100F7000801C2063E08E401EE0862EE020688168A1
:100F800089070FD5E18E69B1B9F1010F0AD1216B43
:100F90000988C160206B801C2063E08E401EE086C3
:100FA0004FF0000920688168C9070CD0E18F51B16A
:100FB000C068A16B0880A06B801CA063E08F401EFE
:100FC000E0874FF00109FFF7A9FAC01B01E00BE031
:100FD00067E0B04201D3701C50D1E08E0028CDD123
:100FE000E08F0028CAD13EE0206B216800780873AA
:100FF000206B401C2063E08E401EE0862DE02068C0
:10100000816889070FD5E18E69B1B9F1010F0AD165
:10101000216B09780173206B401C2063E08E401E19
:10102000E0864FF0000920688168C9070CD0E18F85
:1010300051B1C068A16B0870A06B401CA063E08F29
:10104000401EE0874FF00109FFF768FAC01BB0426D
:1010500002D3701C01D011E086B1E08E0028CED101
:10106000E08F0028CBD13A463146204600F02FF9D8
:1010700050B12020606584F8508012E084F851A0BF
:1010800084F85080032068E7A06818B92068C16818
:101090008068009084F851A084F85080606D00282A
:1010A000F1D0012059E710B5401EB0F1807F01D387
:1010B000012010BD4FF0E02460610F21601700F0A7
:1010C000B1F90020A06107202061002010BDFEE7DB
:1010D00070B50C460546012100F057FA024644B1AE
:1010E000012C0BD0032C0FD0052C13D0062C17D0BD
:1010F0001BE0002002F0F802E86116E0012002F097
:10110000F802521CE86110E0032002F0F802D21C41
:10111000E8610AE0052002F0F802521DE86104E0EF
:10112000062002F0F802921DE8612846BDE87040F2
:10113000012100F04DBB10B5044681898068002272
:10114000FFF7E6F90120FFF7D9F8A1890122A0688D
:10115000FFF7DEF9BDE810406420FFF7CFB80000CC
:101160002DE9F04186B000242948009401940294AE
:101170000394816941F010018161816901F01001DE
:101180000491816941F020018161816901F02001B0
:101190000491816941F004018161816901F00401D8
:1011A0000491816941F0080181618069194F00F063
:1011B00008004FF400550490002229463846FFF7F6
:1011C000A7F9DFF85480012203214046FFF7A0F978
:1011D0000095022601250396CDE90154694638465B
:1011E000FFF79EF80320CDE90005CDE902566946D8
:1011F0004046FFF795F8A80200900848CDE90104A1
:1012000069460748FFF78CF806B0BDE8F08100009A
:101210000010024000100140000C014000001110BD
:1012200000080140104810B50E4901604FF482716A
:10123000416000218160C1604FF400720161C0E92A
:1012400005121022C0E90721416281620A21C162B0
:10125000FFF743FC002803D0BDE81040FFF74BB870
:1012600010BD00000030014040000020FEE7FEE716
:101270007047F8B5044640684FF48273984217D11E
:10128000A0684FF48065B0F5004F01D0A8420FD19F
:101290002068066826F0400606606068984207D11C
:1012A000A068A84204D100920B460022012103E06D
:1012B00000920B4600228021204600F023F80028EF
:1012C00004D0606D40F0200060650320F8BDF8B5E3
:1012D00015460E460B46009204460122022100F0FC
:1012E00011F840B93346002280212046009500F0D5
:1012F00009F8002804D0606D40F0200060650320EC
:10130000F8BD00002DE9F8431E4691468846044684
:10131000089DFFF703F9401B351AFFF7FFF8074652
:1013200025480068C0F3CB30684338E0701C37D0E4
:10133000FFF7F4F8C01BA84203D215B1009860B3C0
:101340002CE02068416821F0E00141606068B0F560
:10135000827F0BD1A068B0F5004F02D0B0F5806F4E
:1013600004D12068016821F040010160A06AB0F555
:10137000005F09D12068016821F4005101602068F4
:10138000016841F400510160012084F851000020FF
:1013900084F850000320BDE8F8830025401E00902B
:1013A0002068816838EA010004D000214945BDD198
:1013B0000020F0E70121F9E7100000207047FFF757
:1013C000B3B830B58FB028216846FEF72FFF14213F
:1013D0000AA8FEF72BFF01210804CDE90010002424
:1013E000029402250491CDE907504FF4E0100990D2
:1013F0006846FFF7DFF908B172B6FEE70F20CDE9C6
:101400000A054FF48060CDE90C4002210AA80E9431
:10141000FFF714F9002801D072B6FEE70FB030BD17
:101420007047FEE70907090E002804DB00F1E02001
:1014300080F80014704700F00F0000F1E02080F801
:10144000141D704700B58BB040F2B111089107210F
:101450008DF824108DF8251001218DF82610FF211C
:101460008DF82A1064218DF82B100821ADF8281072
:101470002C226946FEF7A8FE0BB000BD70B50446ED
:101480000021FFF725FE0A20FEF738FF0121204644
:1014900000F07BF805460A20FEF730FF45F0800299
:1014A0000121204600F094F96420FEF727FF204632
:1014B000216A00F0CBF894F82A10204600F005F9D4
:1014C00094F82B10204600F0E1F823220C2120464E
:1014D00000F07EF9204600F022F994F8241020460E
:1014E00000F0FDF8FF221F21204600F071F994F86A
:1014F000250094F82610000100EB4100C2B21D2126
:10150000204600F065F9204600F07AF8208D202171
:10151000020A204600F05CF994F828202121204698
:1015200000F056F94021204600F02FF840F03F022D
:101530004021204600F04CF901212046FFF7C8FD6C
:101540000120E0610A20FEF7D9FE4221204600F08A
:101550001CF8122802D04FF4CA7070BDC82070BDAC
:1015600070B50C460546262100F00FF814B140F086
:10157000080201E000F0F7022621284600F028F9D1
:10158000BDE870400A20FEF7B9BE0EB501F07F013C
:101590008DF8081001210A46009101AB02A900F064
:1015A00003F89DF804000EBD2DE9F0470E461546E0
:1015B000044681889846DDF8209000680022FEF7F6
:1015C000A7FF4FF4FA673B462A463146A069FFF76A
:1015D000BFFBA069FFF77EFA0128FAD13B464A46D5
:1015E0004146A069FFF70AFBA069FFF773FA0128DB
:1015F000FAD1A1882068BDE8F0470122FEF788BF34
:1016000010B594B0044650220F496846FEF7DCFD41
:1016100094F824100120884000F03FFB94F8252026
:101620006B4603EBC203D3E9002300F0AFF900F0EF
:1016300005FB102801DD012100E000212046FFF715
:101640008FFF14B010BD0000981D000870B505464E
:10165000C8044411C4F307420621284600F0B8F834
:101660000520FEF74BFEC4F307220721284600F0B1
:10167000AFF80520FEF742FEE2B20821284600F04E
:10168000A7F8BDE870400520FEF738BE10B52D293B
:1016900001D22D2105E0F02901D9F02106E07829B9
:1016A00004D805222D3991FBF2F103E00A221E3104
:1016B000B1FBF2F1C9B22031CAB20B2100F088F8B7
:1016C000BDE810400A20FEF719BE10B50A460921F0
:1016D00000F07EF8BDE810400A20FEF70FBE70B59E
:1016E0000C4606460C2901DD0C2402E0072C00DA2A
:1016F00007241E21FFF749FF05460A20FEF7FEFDDD
:1017000064F31F15EAB21E21304600F061F80A208A
:10171000FEF7F4FD3046BDE87040FFF771BF10B52D
:1017200004461E21FFF731FF40F007021E2120462C
:1017300000F04EF8BDE810400A20FEF7DFBD2DE9AD
:10174000F8430F461C46164680460121C569FFF73F
:10175000BFFC0E214046FFF718FF8DF800009DF8F2
:1017600000200E21404600F033F832462221404648
:1017700000F02EF833463A460021404600F037F894
:1017800003214046FFF7A4FC12214046FFF7FDFE6F
:101790008DF800009DF8000000070BD5FF221221F4
:1017A000404600F015F829464046FFF791FC01201D
:1017B000BDE8F883641E2404240C03D00120FEF746
:1017C0009DFDE1E729464046FFF782FC0020EFE758
:1017D0000EB541F080018DF8081001218DF804202C
:1017E0000A46009101AB02A900F02CF80EBDF8B535
:1017F000044641F080008DF8000017461E46A1887F
:1018000000222068FEF784FE4FF4FA652B46012281
:101810006946A069FFF79CFAA069FFF75BF9012808
:10182000FAD12B4632463946A069FFF791FAA069F2
:10183000FFF750F90128FAD1A18801222068FEF7AC
:1018400067FEF8BD2DE9F0410E4615460446818835
:101850001F46DDF8188000680022FEF759FE4FF49D
:10186000FA632A463146A069FFF772FAA069FFF7CA
:1018700031F90128FAD1032342463946A069FFF71E
:1018800067FAA069FFF726F90128FAD1A188206834
:10189000BDE8F0410122FEF73BBE0000ACB0FEF710
:1018A0004BFEFFF78EFDFFF75BFCFFF7BBFC20A8AC
:1018B000FFF7C8FD2C2220A92E48FEF785FC2D48F5
:1018C0002D4A012104C0042320F8081B40F8042CF1
:1018D00002220280294A42608A020281284AC260AA
:1018E0004FF4DC7242610922027643768176FF2151
:1018F00081778221C17782831E48FFF71CFC1D4837
:10190000FFF7BCFD1F49C0B21F4E08704FF40055D1
:10191000C8281ED0002229463046FEF7F9FD2D20AA
:101920008DF8000012208DF8010047208DF802008C
:101930004FF4FA742346032269460E48FFF7FFFE70
:101940002346032269460B48FFF7F9FE012809D018
:101950000CE0012229463046FEF7DAFD6420FEF74E
:10196000CDFCDCE729463046FEF7CAFD2046FEF7EF
:10197000C5FCE5E714000020000C01400008014010
:101980004000002000000020001001402DE9C0416F
:1019900030B4DFF8A0C23CEA111418BF3CEA1314BB
:1019A00000F0EC8081EA03051CEA111444EAD574C6
:1019B00018BF1CEA131500F0C780A4EB05044FF014
:1019C000004545EAC12145EAC32341EA505143EAB3
:1019D000525304F17F74994204F500344FEAC02059
:1019E0004FEAC22208BF904200F09C804FEA136584
:1019F0000FF24016765D4FEA134506FB05F7C7F177
:101A0000807706FB07F74FEAD737A7FB03687642D4
:101A1000C8F58038A7FB06CE38BFA8F1010807FB40
:101A200008E64FF0000EA6FB028CE6FB03CEDCF1CD
:101A3000000CCEF1004E38BFAEF1010EA6FB0C58E3
:101A40004FF000074FF00005E6FB0E87A1FB08C62C
:101A5000A0FB07CE16EB0E0645F10005E1FB07657E
:101A600015F1E04E7EBFA4F580345FEA46066D4175
:101A700016F1800745F100054FEA17274FEA066681
:101A800047EA0567A6F1DE46B6F1805F4FEA152505
:101A90001FD9384624F0010C05EBC471BCF1FE6F70
:101AA00001EB0C1102D8F0BCBDE8008124425CBF00
:101AB00001F5801E9EEAC47F02D4F0BCBDE800811F
:101AC000244238D4F0BCA1F1C041BDE8004100F08F
:101AD00049B94FEAD22242EA43524FEAD323A7FB45
:101AE00002864FEAD02040EA415007FB03661EEA17
:101AF0000E0F4FEAD12105FB026658BFA6EB005638
:101B0000B6EB00564FEA520E4EEAC37E18EB0E0EAD
:101B100056EB530EBDD518EB02085E417F1C55F104
:101B20000005B6E74FF480154FF000074FF00006B0
:101B30004FF00008ADE7F0BC4FF0000001F1C041EC
:101B400001F00041BDE8008111EA0C1F0CEA1315F9
:101B500000D00CE013EA0C1F00F025804FF00000CD
:101B6000F0BC81EA030101F00041BDE80081F0BC56
:101B7000BDE8004181EA030100F0F4B8F0BCBDE823
:101B8000004170B500F0A0F8097EFC3E00F007B8F7
:101B900081EA03014FF0000001F00041704781EA43
:101BA000030100F0DFB8F0BCBDE800414FF00000D9
:101BB00021497047FFFDFBF9F7F5F4F2F0EEEDEB8C
:101BC000E9E8E6E4E3E1E0DEDDDBDAD8D7D5D4D33B
:101BD000D1D0CFCDCCCBCAC8C7C6C5C4C2C1C0BF87
:101BE000BEBDBCBBBAB9B8B7B6B5B4B3B2B1B0AF8D
:101BF000AEADACABAAA9A8A8A7A6A5A4A3A3A2A171
:101C0000A09F9F9E9D9C9C9B9A999998979796952B
:101C100095949393929191908F8F8E8E8D8C8C8BC7
:101C20008B8A89898888878786858584848383824F
:101C3000828181800000FF070000F87F4FEA4103A6
:101C40004FEA5353A3F58063D3F11E03C8BFD3F10A
:101C5000210C0CDD4FF0004242EAC12242EA505210
:101C600032FA03FC8CEAE17CACEBE1707047102B9C
:101C7000C4BF0020704703F5787CBCF1FF3F04D05F
:101C80006FF0004282EA2100704770B500F01CF846
:101C90004992248000207047F2E710F0004248BFCC
:101CA0004042B0FA80F310FA03F10AD0C3F11D03E9
:101CB00003F580634FEA415002EB035202EBD1215E
:101CC00070474FF0000070470EF1020E2EF0030E29
:101CD0005EF8046B364205D4012A43EB030515F583
:101CE000001F12D8012841EB010C1CF5001F0CD875
:101CF0000ED14FEAD17C15F5001F0CEB4C0C0CF10A
:101D0000020C08BF4CEBD37C04E04FF0080C01E060
:101D10004FEAD37C0CEB4C0526FA05F606F00706D5
:101D2000B6F1040C06D20EEB860CBDE870404CF008
:101D3000010C6047DFE80CF0090B02024FF0004194
:101D40004FF00000A1F5002170BD19461046012892
:101D500051EB010418BFD4F5001484BF002001F03A
:101D6000004170BD0808A0F500114FEA310170472D
:101D7000010202030405060708090A0B0C0D0E0FE9
:101D8000101000000000000000000102030406071C
:101D900008090000000000003333333333331F40A1
:101DA000CDCCCCCCCCCC24403333333333332F4065
:101DB000CDCCCCCCCCCC34400000000000403F4027
:101DC0009A99999999D944400000000000404F40E9
:101DD0000000000000405F400000000000406F4035
:101DE0000000000000407F40081E000800000020A6
:101DF00014000000280100081C1E00081400002028
:101E0000E40600004401000800000000010000009A
:0C1E1000100000000000000000127A002A
:04000005080000ED02
:00000001FF
